:020000040800F2
:10000000002000209D2C0008C9290008D3290008E1
:1000100000000000000000000000000000000000E0
:10002000000000000000000000000000D9290008C6
:100030000000000000000000E3290008ED2900088E
:10004000ED2C0008ED2C0008ED2C0008ED2C00082C
:10005000ED2C0008ED2C0008FD290008ED2C00080F
:1000600000000000ED2C0008ED2C0008ED2C00082D
:10007000ED2C0008ED2C000800000000ED2C00081D
:1000800000000000ED2C000800000000000000004F
:10009000ED2C000800000000ED2C0008ED2C0008FD
:1000A000ED2C0008ED2C0008ED2C0008ED2C0008CC
:1000B000ED2C0008ED2C00080000000000000000FE
:1000C00010B5064C2378002B07D1054B002B02D02E
:1000D000044800E000BF0123237010BDD8140020A5
:1000E0000000000074370008044B10B5002B03D04B
:1000F0000349044800E000BF10BDC04600000000F6
:10010000DC14002074370008002243088B4274D3AB
:1001100003098B425FD3030A8B4244D3030B8B4208
:1001200028D3030C8B420DD3FF22090212BA030C11
:100130008B4202D31212090265D0030B8B4219D3F2
:1001400000E0090AC30B8B4201D3CB03C01A524112
:10015000830B8B4201D38B03C01A5241430B8B425A
:1001600001D34B03C01A5241030B8B4201D30B0343
:10017000C01A5241C30A8B4201D3CB02C01A52416A
:10018000830A8B4201D38B02C01A5241430A8B422D
:1001900001D34B02C01A5241030A8B4201D30B0216
:1001A000C01A5241CDD2C3098B4201D3CB01C01A30
:1001B000524183098B4201D38B01C01A524143093A
:1001C0008B4201D34B01C01A524103098B4201D328
:1001D0000B01C01A5241C3088B4201D3CB00C01A95
:1001E000524183088B4201D38B00C01A524143080D
:1001F0008B4201D34B00C01A5241411A00D2014632
:10020000524110467047FFE701B5002000F006F8A4
:1002100002BDC0460029F7D076E770477047C04658
:10022000002B11D1002A0FD1002900D1002802D0C3
:100230000021C943081C07B4024802A140180290DB
:1002400003BDC046D9FFFFFF03B4684601B502985D
:1002500000F006F8019B9E4602B00CBC7047C046F9
:10026000F0B557464E464546DE46E0B504000D0063
:100270009246994683B08B4230D82DD0494650469D
:1002800000F0BAF829000600200000F0B5F8331A93
:100290009846203B9B4633D45A46534693404246A9
:1002A0001F00534693401E00AF423AD8AF4200D1E0
:1002B00078E05B46A41BBD41002B00DA75E000220C
:1002C00000230092019301235A4693400193012396
:1002D00042469340009328E08242CFD90022002377
:1002E000009201930C9B002B01D01C605D60009874
:1002F000019903B03CBC90469946A246AB46F0BD7E
:10030000424620239B1A5246DA40414613004A4691
:100310008A40170042461F43534693401E00AF4297
:10032000C4D900220023009201934346002BD9D068
:10033000FB0772081A4346467B080EE0AB4201D128
:10034000A2420CD8A41A9D41012024196D4100211C
:10035000013E24184D41002E06D0AB42EED9013E9D
:1003600024196D41002EF8D1009801995B460019BF
:100370006941002B24DB2B005A464446D3402A0017
:10038000E2401C005B461500002B2ADB26009E4045
:10039000330026004746BE403200801A9941009043
:1003A00001919FE7A342BCD883E742462023002166
:1003B0009B1A0022009101920122DA40019286E705
:1003C000424620239B1A2A0046469A402300F340C7
:1003D000444613432A00E2401C005B461500002BF4
:1003E000D4DA42462F002023260097409B1ADE4095
:1003F0003B003343CDE7C04610B5002903D100F0E0
:1004000007F8203002E0081C00F002F810BDC046DA
:100410001C2101231B04984201D3000C10391B0A34
:10042000984201D3000A08391B09984201D30009F8
:10043000043902A2105C40187047C046040302024F
:1004400001010101000000000000000080B582B041
:1004500000AF78607B68180000F03EFBC046BD46E8
:1004600002B080BD80B584B000AF0200FB1D1A70E1
:1004700014E00F23FB1800221A7005E00F217B18EF
:100480001A787B1801321A700F23FB181B78002B87
:10049000F4D0FB1D1A78FB1D013A1A70FB1D1B7866
:1004A000002BE6D1C046C046BD4604B080BD80B535
:1004B00084B000AF0200FB1D1A700120FFF7D2FFCD
:1004C0000F23FB1800221A7035E0A023DB05002261
:1004D0004021180000F08BFD0120FFF7C3FFFB1D3A
:1004E0001B785BB2002B07DAA023DB050122202159
:1004F000180000F07CFD06E0A023DB05002220218F
:10050000180000F074FDFA1DFB1D1B78DB1813703A
:100510000120FFF7A7FFA023DB05012240211800DF
:1005200000F065FD0120FFF79DFF0F217B181A7871
:100530007B1801321A700F23FB181B78072BC4D9C4
:10054000C046C046BD4604B080BD000080B582B044
:1005500000AF0200FB1D1A70A023DB0500228021E2
:10056000180000F044FD0B4B00220121180000F0A0
:100570003EFDFB1D1B781800FFF799FFA023DB054C
:1005800001228021180000F032FDC046BD4602B0B5
:1005900080BDC0460004005080B582B000AF0200AC
:1005A000FB1D1A70A023DB0500228021180000F03B
:1005B0001EFD0B4B01220121180000F018FDFB1D50
:1005C0001B781800FFF773FFA023DB0501228021B1
:1005D000180000F00CFDC046BD4602B080BDC0460C
:1005E0000004005090B585B000AF78600A00FB1C95
:1005F0001A700F243B1900221A707B68BB60A0237D
:10060000DB0500228021180000F0F1FC1C4B0022C9
:100610000121180000F0EBFCBB681B781800FFF705
:1006200046FFBB680133BB60154B01220121180056
:1006300000F0DDFC3B1900221A700DE0BB681B784E
:100640001800FFF734FFBB680133BB600F217B1834
:100650001A787B1801321A700F23FB181A78FB1CCA
:100660001B78013B9A42E9DBA023DB0501228021B4
:10067000180000F0BCFCC046BD4605B090BDC046A9
:100680000004005080B500AF0C4B180002F0D4FB02
:1006900002E00A20FFF7DAFE80235A00A023DB05E0
:1006A0001100180000F086FC031EF2D1044B180064
:1006B00002F0C2FBC046BD4680BDC0468C37000874
:1006C000A437000880B500AF0E4B012202211800AC
:1006D00000F08DFCC820FFF7B9FE0A4B0022022172
:1006E000180000F084FC0220FFF7B0FE054B012249
:1006F0000221180000F07BFCC820FFF7A7FEC046CF
:10070000BD4680BD0004005080B500AF064B0321FC
:100710001800FFF767FF054B05211800FFF762FF80
:10072000C046BD4680BDC0460C0000201000002021
:1007300080B500AF064B02211800FFF753FF054BB1
:1007400003211800FFF74EFFC046BD4680BDC046DE
:100750002C0000203000002080B500AF0E4B9A2105
:100760001800FFF73FFFFFF78DFF0C4B0221180029
:10077000FFF738FF0A4B02211800FFF733FF094B40
:1007800004211800FFF72EFF074B02211800FFF786
:1007900029FFC046BD4680BD34000020D0000020A7
:1007A000D4000020D8000020DC00002080B500AF7D
:1007B000FFF768FF174B01211800FFF713FFFFF742
:1007C00061FF154B04211800FFF70CFF134B0221AA
:1007D0001800FFF707FFFFF797FF114B02211800E2
:1007E000FFF700FF0F4B02211800FFF7FBFE0E4B37
:1007F00002211800FFF7F6FE0C4B01211800FFF74D
:10080000F1FEFFF795FFFFF73DFFFFF7A5FFC0469D
:10081000BD4680BD0000002004000020080000202C
:10082000180000201C0000202000002028000020CC
:1008300080B500AF0A4B00220121180000F0D7FB61
:10084000A023DB0500228021180000F0D0FB044B20
:1008500001220221180000F0CAFBC046BD4680BD3F
:100860000004005080B500AFFFF72CFFFFF79EFF9C
:10087000C046BD4680BD000080B584B000AFBB1D42
:1008800019221A803B1DC8221A802420FFF75EFE21
:100890000E23FB1800221A801AE00C23FB180022FA
:1008A0001A8008E0FF20FFF777FE0C217B181A88DA
:1008B0007B1801321A800C23FA18BB1D12881B8882
:1008C0009A42EFD30E217B181A887B1801321A80C6
:1008D0000E23FA183B1D12881B889A42DDD326206E
:1008E000FFF734FE0A23FB1800221A801AE00823BF
:1008F000FB1800221A8008E0FF20FFF74DFE0821B8
:100900007B181A887B1801321A800823FA18BB1D3D
:1009100012881B889A42EFD30A217B181A887B1809
:1009200001321A800A23FA183B1D12881B889A424A
:10093000DDD3084B02211800FFF754FE064B0121BE
:100940001800FFF74FFEFFF79DFEC046BD4604B0FE
:1009500080BDC046240000202800002090B587B04C
:1009600000AF78601223FB1819221A801023FB189D
:10097000C8221A800023FB602420FFF7E7FD16231E
:10098000FB1800221A802AE01423FB1800221A8088
:1009900017E014243B191A881623FB181B88122110
:1009A000791809884B43D318FB607A68FB68D31821
:1009B0001B781800FFF7F0FD3B191A883B1901322C
:1009C0001A801423FA181223FB1812881B889A42E3
:1009D000DFD316217B181A887B1801321A80162360
:1009E000FA181023FB1812881B889A42CCD3084BA4
:1009F00002211800FFF7F6FD064B01211800FFF752
:100A0000F1FDFFF73FFEC046BD4607B090BDC046B2
:100A1000240000202800002080B582B000AFFB1D1C
:100A200000221A700B4B1A680A4B40210A431A60C5
:100A3000002000F011F8031E03D0FB1D01221A70E4
:100A400001E001F0ADFFFB1D1B781800BD4602B0B0
:100A500080BDC0460020024090B585B000AF7860F0
:100A60000F243B1900221A700F4B1B68FA229100C9
:100A70001800FFF749FB0300180000F018F9031EE7
:100A800003D03B1901221A7006E0796801235B420A
:100A90000022180000F0E6F80F23FB181B7818005E
:100AA000BD4605B090BDC0467014002080B500AFB3
:100AB000034B1B685A1C024B1A60C046BD4680BDE2
:100AC000F414002080B500AF024B1B681800BD462F
:100AD00080BDC046F414002080B584B000AF7860BB
:100AE000FFF7F0FF0300BB607B68FB60FB6801332E
:100AF00002D0FB680133FB60C046FFF7E3FF020052
:100B0000BB68D31AFA689A42F7D8C046C046BD46B9
:100B100004B080BD80B582B000AF0200FB1D1A702A
:100B2000FB1D1B781A001F231A40044B0121914022
:100B30000A001A60C046BD4602B080BD00E100E078
:100B400090B583B000AF02003960FB1D1A70FB1D29
:100B50001B787F2B32D92F4AFB1D1B7819000F23DE
:100B60000B40083B9B0806339B00D31804331B68DB
:100B7000FA1D1278110003220A40D200FF21914091
:100B80000A00D2431A4011003B689B01FF221A4021
:100B9000FB1D1B78180003230340DB009A401D480F
:100BA000FB1D1B781C000F232340083B9B080A43B6
:100BB00006339B00C31804331A6027E0164AFB1D56
:100BC0001B785BB29B08C0339B009B58FA1D1278C0
:100BD000110003220A40D200FF2191400A00D243B3
:100BE0001A4011003B689B01FF221A40FB1D1B7835
:100BF000180003230340DB009A400748FB1D1B78C5
:100C00005BB29B080A43C0339B001A50C046BD46E6
:100C100003B090BD00ED00E000E100E080B582B0DF
:100C200000AF78607B685A1E80235B049A4201D330
:100C3000012310E00A4B7A68013A5A6001235B42B3
:100C400003211800FFF77CFF054B00229A60044B3C
:100C500007221A6000231800BD4602B080BDC046BE
:100C600010E000E080B584B000AFB9607A600F2179
:100C70007B18021C1A70BA687B181B785BB21100D3
:100C80001800FFF75DFFC046BD4604B080BD80B5CB
:100C900082B000AF0200FB1D1A70FB1D1B785BB217
:100CA0001800FFF737FFC046BD4602B080BD80B5D3
:100CB00082B000AF78607B681800FFF7AFFF0300D9
:100CC0001800BD4602B080BD80B586B000AF786028
:100CD000396000237B610023FB6000233B614FE10F
:100CE0003B681B6801217A6991400A001340FB6050
:100CF000FB68002B00D140E13B685B68022B03D00E
:100D00003B685B68122B23D17B69DA087B68083269
:100D10009200D3583B617B69072213409B000F224E
:100D20009A401300DA433B6913403B613B681A6900
:100D30007B6907210B409B009A4013003A691343DB
:100D40003B617B69DA087B68083292003969D150CF
:100D50003B685B68012B0BD03B685B68022B07D0BC
:100D60003B685B68112B03D03B685B68122B30D16A
:100D70007B689B683B617B695B0003229A401300A0
:100D8000DA433B6913403B613B68DA687B695B008F
:100D90009A4013003A6913433B617B683A699A6051
:100DA0007B685B683B6101227B699A401300DA43F0
:100DB0003B6913403B613B685B681B0901221A4099
:100DC0007B699A4013003A6913433B617B683A6937
:100DD0005A607B681B683B617B695B0003229A4019
:100DE0001300DA433B6913403B613B685B680322B5
:100DF0001A407B695B009A4013003A6913433B61D8
:100E00007B683A691A607B68DB683B617B695B00E1
:100E100003229A401300DA433B6913403B613B686D
:100E20009A687B695B009A4013003A6913433B61FF
:100E30007B683A69DA603B685A6880235B05134037
:100E400000D19AE0544B5A6B534B01210A435A6329
:100E5000524A7B699B0802339B009B583B617B692C
:100E6000032213409B000F229A401300DA433B6990
:100E700013403B617A68A023DB059A4219D07B6856
:100E8000474A934213D07B68464A93420DD07B6811
:100E9000454A934207D07B68444A934201D10523D7
:100EA00008E0062306E0032304E0022302E0012316
:100EB00000E000237A6903210A40920093403A69D6
:100EC00013433B6135497B699B0802339B003A69B8
:100ED0005A50374B1B683B61FB68DA433B69134050
:100EE0003B613B685A6880235B02134003D03A6938
:100EF000FB6813433B612E4B3A691A602C4B5B68CD
:100F00003B61FB68DA433B6913403B613B685A68CD
:100F100080239B02134003D03A69FB6813433B6173
:100F2000234B3A695A60224B9B683B61FB68DA436A
:100F30003B6913403B613B685A6880235B03134065
:100F400003D03A69FB6813433B61194B3A699A60D5
:100F5000174BDB683B61FB68DA433B6913403B613D
:100F60003B685A6880239B03134003D03A69FB68AF
:100F700013433B610E4B3A69DA607B6901337B6155
:100F80003B681A687B69DA40131E00D0A8E6C046A9
:100F9000C046BD4606B080BD0010024000000140C2
:100FA0000004005000080050000C0050001C0050CD
:100FB0000004014080B584B000AF78600A00BB1C1B
:100FC0001A807B681B69BA1C1288134004D00F2357
:100FD000FB1801221A7003E00F23FB1800221A707D
:100FE0000F23FB181B781800BD4604B080BD80B5E8
:100FF00082B000AF786008001100BB1C021C1A8090
:101000007B1C0A1C1A707B1C1B78002B04D0BB1C99
:101010001A887B689A6103E0BB1C1A887B689A6215
:10102000C046BD4602B080BDB0B58AB000AF7860A2
:101030007B68002B02D1012300F056FBCD4BDB680F
:101040000C2213403B62CB4BDA6880235B021340D7
:10105000FB617B681B680122134000D17CE03B6A86
:10106000082B07D03B6A0C2B11D1FA6980235B0255
:101070009A420CD1BF4B1A6880239B02134000D1C7
:1010800069E07B685B68002B65D101232CE37B68FA
:101090005A6880235B029A4207D1B64B1A68B54B57
:1010A000802149020A431A6027E07B685A68A0231E
:1010B000DB029A420ED1AF4B1A68AE4B8021C902B7
:1010C0000A431A60AB4B1A68AA4B802149020A43B3
:1010D0001A6012E0A74B1A68A64BA7490A401A608B
:1010E000A44B1A6880235B021340FB60FB68A14B92
:1010F0001A68A04BA1490A401A607B685B68002B04
:1011000014D0FFF7DFFC0300BB6108E0FFF7DAFC57
:101110000200BB69D31A642B01D90323E4E2954B87
:101120001A6880239B021340F0D015E0FFF7CAFC39
:101130000300BB6108E0FFF7C5FC0200BB69D31ADE
:10114000642B01D90323CFE28A4B1A6880239B02C8
:101150001340F0D100E0C0467B681B6802221340B8
:1011600000D18AE07B68DB687B613B6A042B05D099
:101170003B6A0C2B3DD1FB69002B3AD17D4B1B68A0
:101180000422134004D07B69002B01D10123ABE280
:10119000784B5B687A4A134019007B681B691A0216
:1011A000744B0A435A60734B1B680922934319001E
:1011B000704B7A690A431A6000F0C6FB01006D4B60
:1011C000DB681B090F2213406E4AD35C0A00DA4029
:1011D0006D4B1A6013257C190020FFF73DFC0300BE
:1011E00023702A00BB181B78002B46D0BB181B7835
:1011F0007AE27B69002B27D05E4B1B680922934360
:1012000019005C4B7A690A431A60FFF75BFC030024
:10121000BB6108E0FFF756FC0200BB69D31A022B42
:1012200001D9032360E2534B1B6804221340F1D021
:10123000504B5B68524A134019007B681B691A02C5
:101240004C4B0A435A6018E04A4B1A68494B01213B
:101250008A431A60FFF736FC0300BB6108E0FFF722
:1012600031FC0200BB69D31A022B01D903233BE2F4
:10127000404B1B6804221340F1D17B681B6810228D
:10128000134000D19EE03B6A002B3FD1394B1A68D6
:1012900080239B00134005D07B689B69002B01D104
:1012A000012321E2334B5B68384A134019007B6805
:1012B0001A6A304B0A435A602E4B5B681B02190AAC
:1012C0007B68DB691A062B4B0A435A607B681B6AF2
:1012D0005B0B0133802212029A40264BDB681B090C
:1012E0000F210B402749CB5CDA40274B1A601325AE
:1012F0007C190020FFF7B0FB030023702A00BB1805
:101300001B78002B5ED0BB181B78EDE17B689B69D6
:10131000002B3DD0174B1A68164B802149000A4319
:101320001A60FFF7CFFB0300BB6108E0FFF7CAFBC1
:101330000200BB69D31A022B01D90323D4E10D4B60
:101340001A6880239B001340F0D00A4B5B680F4A59
:10135000134019007B681A6A064B0A435A60054B12
:101360005B681B02190A7B68DB691A06014B0A439A
:101370005A6027E000100240FFFFFEFFFFFFFBFF67
:10138000FFE0FFFF0C38000870140020FF1FFFFF74
:10139000BE4B1A68BD4BBE490A401A60FFF792FB6C
:1013A0000300BB6108E0FFF78DFB0200BB69D31AA5
:1013B000022B01D9032397E1B44B1A6880239B00C9
:1013C0001340F0D17B681B680822134036D07B683D
:1013D0005B69002B19D0AD4B1A6DAC4B01210A4350
:1013E0001A65FFF76FFB0300BB6108E0FFF76AFBBC
:1013F0000200BB69D31A022B01D9032374E1A34B6A
:101400001B6D02221340F1D018E0A04B1A6D9F4BC8
:1014100001218A431A65FFF755FB0300BB6108E011
:10142000FFF750FB0200BB69D31A022B01D903233B
:101430005AE1964B1B6D02221340F1D17B681B6869
:101440000422134000D1AEE027203B1800221A707E
:101450008E4B9A6B80235B05134009D18B4B9A6BA3
:101460008A4B802149050A439A633B1801221A706E
:10147000884B1A6880235B0013401AD1854B1A6889
:10148000844B802149000A431A60FFF71BFB0300CD
:10149000BB6108E0FFF716FB0200BB69D31A642B9F
:1014A00001D9032320E17B4B1A6880235B001340A2
:1014B000F0D07B689A6880235B009A4207D1734B17
:1014C0001A6D724B802149000A431A6531E07B682E
:1014D0009B68002B0CD16D4B1A6D6C4B6C490A400C
:1014E0001A656A4B1A6D694B6B490A401A6520E010
:1014F0007B689A68A023DB009A420ED1634B1A6D79
:10150000624B8021C9000A431A65604B1A6D5F4B1C
:10151000802149000A431A650BE05C4B1A6D5B4B56
:101520005B490A401A65594B1A6D584B5A490A4093
:101530001A657B689B68002B15D0FFF7C3FA030080
:10154000BB6109E0FFF7BEFA0200BB69D31A534A38
:10155000934201D90323C7E04C4B1A6D80239B00B3
:101560001340EFD014E0FFF7ADFA0300BB6109E0D0
:10157000FFF7A8FA0200BB69D31A484A934201D97F
:101580000323B1E0414B1A6D80239B001340EFD140
:101590002723FB181B78012B05D13C4B9A6B3B4B47
:1015A0003F490A409A637B685B6A002B00D19AE04E
:1015B0003B6A0C2B64D07B685B6A022B45D1334BB2
:1015C0001A68324B37490A401A60FFF77BFA03006A
:1015D000BB6108E0FFF776FA0200BB69D31A022B61
:1015E00001D9032380E0294B1A6880239B04134010
:1015F000F0D1264BDB682C4A134019007B689A6AAD
:101600007B68DB6A1A437B681B6B1A431F4B0A43D8
:10161000DA601E4B1A681D4B802149040A431A6088
:10162000FFF750FA0300BB6108E0FFF74BFA020036
:10163000BB69D31A022B01D9032355E0134B1A6857
:1016400080239B041340F0D04DE0104B1A680F4BE1
:1016500014490A401A60FFF735FA0300BB6108E03D
:10166000FFF730FA0200BB69D31A022B01D903231A
:101670003AE0064B1A6880239B041340F0D132E015
:101680007B685B6A012B11D101232DE00010024021
:10169000FFFEFFFF00700040FFFBFFFF881300000C
:1016A000FFFFFFEFFFFFFFFEFFFF02FF104BDB68B6
:1016B000FB61FA6980235B021A407B689B6A9A424D
:1016C0000FD1FA69F0239B031A407B68DB6A9A42C8
:1016D00007D1FA69C0231B041A407B681B6B9A422E
:1016E00001D0012300E000231800BD460AB0B0BDC0
:1016F00000100240B0B584B000AF786039607B68FC
:10170000002B01D101230DE1884B1B6801221340FE
:101710003A689A4211D9854B1B68012293431900FC
:10172000824B3A680A431A60804B1B6801221340BF
:101730003A689A4201D00123F4E07B681B680222D8
:10174000134009D07A4BDB68F022934319007B6881
:101750009A68774B0A43DA607B681B680122134062
:1017600000D189E07B685B68022B07D1704B1A6857
:1017700080239B02134020D10123D3E07B685B6868
:10178000032B07D16A4B1A6880239B04134014D1A2
:101790000123C7E07B685B68012B06D1644B1B68A3
:1017A0000422134009D10123BCE0614B1A68802355
:1017B0009B00134001D10123B4E05D4BDB680322A1
:1017C000934319007B685A68594B0A43DA60FFF764
:1017D00079F90300FB607B685B68022B11D109E09B
:1017E000FFF770F90200FB68D31A524A934201D9FD
:1017F000032397E04E4BDB680C221340082BEFD1FC
:101800003AE07B685B68032B11D109E0FFF75AF9D6
:101810000200FB68D31A474A934201D9032381E0AF
:10182000434BDB680C2213400C2BEFD124E07B6888
:101830005B68012B1BD109E0FFF744F90200FB684C
:10184000D31A3C4A934201D903236BE0384BDB683F
:101850000C221340042BEFD10EE0FFF733F9020006
:10186000FB68D31A334A934201D903235AE0304B21
:10187000DB680C221340F0D12C4B1B680122134073
:101880003A689A4211D2294B1B68012293431900EE
:10189000264B3A680A431A60244B1B680122134006
:1018A0003A689A4201D001233CE07B681B6804221D
:1018B000134009D01E4BDB681F4A134019007B6898
:1018C000DA681B4B0A43DA607B681B680822134006
:1018D0000AD0174BDB68194A134019007B681B6953
:1018E000DA00134B0A43DA6000F02EF80100104BC7
:1018F000DB681B090F221340114AD35C0A00DA404F
:10190000104B1A600B257C190020FFF7A5F8030087
:1019100023702A00BB181B78002B02D0BB181B7841
:1019200000E000231800BD4604B0B0BD0020024016
:101930000010024088130000FFF8FFFFFFC7FFFF01
:101940000C3800087014002080B586B000AF3C4B06
:10195000DB68FB60FB680C2213400C2B13D05CD8B7
:10196000042B02D0082B0BD057E0354B1B681022FC
:10197000134002D0334B3B615DE0334B3B615AE097
:10198000324B3B6157E0FB689B0C0F221340304AFF
:10199000D35CBB60FB689B0D0322134001337B606B
:1019A000274BDA6880235B0213400FD0B9680A0026
:1019B0005201521A93019B1ADB005B185B02796893
:1019C0001800FEF7A1FB03007B6123E01C4B1B68A2
:1019D000102213400FD0B9680A005201521A930125
:1019E0009B1ADB005B181B0279681800FEF78CFB62
:1019F00003007B610EE0B9680A005201521A93019C
:101A00009B1ADB005B189B0279681800FEF77CFBD1
:101A100003007B617B693B610DE0094B5B685B0BFD
:101A2000072213403B603B680133802212029A4038
:101A300013003B61C0463B691800BD4606B080BD3F
:101A40000010024000093D000024F40000127A005A
:101A50002438000880B500AF024B1B681800BD4653
:101A600080BDC0467014002080B500AFFFF7F2FFC4
:101A70000100064BDB681B0A07221340044AD35CB3
:101A8000D9400B001800BD4680BDC0460010024082
:101A90001C38000880B500AFFFF7DCFF0100064BE3
:101AA000DB68DB0A07221340044AD35CD9400B00F1
:101AB0001800BD4680BDC046001002401C3800081A
:101AC00080B586B000AF78607B681B682022134029
:101AD00000D1C6E017203B1800221A70894B9A6B80
:101AE00080235B05134009D1864B9A6B854B80217F
:101AF00049050A439A633B1801221A70824B1A68FF
:101B000080235B0013401AD17F4B1A687E4B8021E3
:101B100049000A431A60FEF7D5FF03003B6108E065
:101B2000FEF7D0FF02003B69D31A642B01D90323CF
:101B3000E3E0754B1A6880235B001340F0D0714BD3
:101B40001A68C0239B031340FB607B685A68C0235C
:101B50009B031340FA689A4213D07B685A68C023EB
:101B60009B021A40C0239B029A420AD1654B1A6815
:101B700080239B021A4080239B029A4201D10123B9
:101B8000BBE0604B1A6DC0239B021340FB60FB68F7
:101B9000002B3BD07B685A68C0239B021340FA6835
:101BA0009A4233D07B681B68202213402ED0554BBD
:101BB0001B6D564A1340FB60524B1A6D514B8021EE
:101BC00009030A431A654F4B1A6D4E4B50490A40A0
:101BD0001A654C4BFA681A65FA6880235B0013405B
:101BE00014D0FEF76FFF03003B6109E0FEF76AFFC8
:101BF00002003B69D31A474A934201D903237CE090
:101C0000404B1A6D80239B001340EFD07B685A68CD
:101C1000C0239B021A40C0239B029A420CD1394B2D
:101C20001B683D4A134019007B685A68C0239B0318
:101C30001A40344B0A431A60324B196D7B685A685C
:101C4000C0239B021A402F4B0A431A651723FB1827
:101C50001B78012B05D12B4B9A6B2A4B2F490A403D
:101C60009A637B681B680122134009D0254BDB6C0B
:101C70000322934319007B689A68224B0A43DA6473
:101C80007B681B680222134009D01E4BDB6C0C22C0
:101C9000934319007B68DA681A4B0A43DA647B685D
:101CA0001B680422134009D0164BDB6C1C4A1340FE
:101CB00019007B681A69134B0A43DA647B681B6856
:101CC0000822134009D00F4BDB6C164A1340190051
:101CD0007B685A690B4B0A43DA647B681B68802275
:101CE000134009D0074BDB6C0F4A134019007B6887
:101CF0009A69044B0A43DA6400231800BD4606B013
:101D000080BDC0460010024000700040FFFFFCFF95
:101D1000FFFFF7FF88130000FFFFCFFFFFFFFFEF7C
:101D2000FFF3FFFFFFCFFFFFFFFFF3FF80B582B0A0
:101D300000AF78607B68002B01D1012344E07B6811
:101D40005B6F002B07D17B687022002199547B6860
:101D5000180000F05FFF7B6824225A677B681B68CD
:101D60001A687B681B6801218A431A607B68180027
:101D700000F030F80300012B01D1012324E07B683F
:101D80005B6A002B03D07B68180000F03BFB7B688C
:101D90001B685A687B681B680D490A405A607B685B
:101DA0001B689A687B681B682A218A439A607B6853
:101DB0001B681A687B681B6801210A431A607B68EC
:101DC000180000F0D3FB03001800BD4602B080BD30
:101DD000FFB7FFFFB0B58EB000AFF8611B2318222C
:101DE0009446BC44634410221A700023FB62132300
:101DF00018229446BC44634400221A7000237B627C
:101E0000FB699A68FB691B691A43FB695B691A43A2
:101E1000FB69DB6913437B63FB691B681B68C04A72
:101E200013401900FB691B687A6B0A431A60FB694F
:101E30001B685B68BB4A13401900FB69DA68FB69E1
:101E40001B680A435A60FB699B697B63FB691B68DB
:101E5000B54A934204D0FB691B6A7A6B13437B63D8
:101E6000FB691B689B68B14A13401900FB691B683A
:101E70007A6B0A439A60FB691B68AD4A934236D17C
:101E8000AC4BDB6C03221340032B20D027D8022B52
:101E90000DD024D8002B02D0012B10D01FE01B2323
:101EA00018229446BC44634401221A70ABE01B2301
:101EB00018229446BC44634402221A70A3E01B23F8
:101EC00018229446BC44634404221A709BE01B23EE
:101ED00018229446BC44634408221A7093E01B23E2
:101EE00018229446BC44634410221A708BE0FB69AC
:101EF0001B68914A934236D18E4BDB6C0C22134007
:101F00000C2B20D027D8082B0DD024D8002B02D0A2
:101F1000042B10D01FE01B2318229446BC446344BA
:101F200000221A706FE01B2318229446BC446344BD
:101F300002221A7067E01B2318229446BC446344B3
:101F400004221A705FE01B2318229446BC446344A9
:101F500008221A7057E01B2318229446BC4463449D
:101F600010221A704FE0FB691B686F4A934243D1FD
:101F7000704BDA6CC0231B011340C0221201934244
:101F80002AD0C022120193422ED8802212019342FD
:101F900012D080221201934226D8002B04D0802236
:101FA000D200934210D01FE01B2318229446BC4459
:101FB000634400221A7026E01B2318229446BC4476
:101FC000634402221A701EE01B2318229446BC446C
:101FD000634404221A7016E01B2318229446BC4462
:101FE000634408221A700EE01B2318229446BC4456
:101FF000634410221A7006E01B2318229446BC4446
:10200000634410221A70FB691B68474A934200D050
:1020100098E01B2318229446BC4463441B78082B89
:102020001DD020DC042B15D01DDC002B02D0022B90
:1020300005D018E0FFF718FD03007B621BE03D4B65
:102040001B681022134002D03C4B7B6213E03C4BD8
:102050007B6210E0FFF778FC03007B620BE08023DB
:102060001B027B6207E0132318229446BC4463449E
:1020700001221A70C0467B6A002B00D1A3E1FB69E4
:102080005A6813005B009B187A6A9A4205D3FB6971
:102090005B681B037A6A9A4207D913231822944675
:1020A000BC44634401221A708DE17B6A3B610023CA
:1020B0007B6139697A690B001B0E100005021D4314
:1020C0000B001C02FB695B685B08BB600023FB60C4
:1020D000B868F96800196941FB695B683B600023D7
:1020E0007B603A687B68FEF79BF802000B001300E8
:1020F000FB62FA6AC0239B009A4209D3FA6A8023E2
:102100005B039A4204D2FB691B68FA6ADA605AE1FF
:10211000132318229446BC44634401221A7052E1EE
:10212000F369FFEFFFCFFFFF00480040FFF4FFFF20
:1021300000380140001002400044004000093D000A
:102140000024F400FB69DA6980231B029A4200D064
:10215000AAE01B2318229446BC4463441B78082B36
:102160006DD89A00A04BD3181B689F46FFF77CFCE4
:1021700003005A00FB695B685B08D218FB695B6867
:1021800019001000FDF7C0FF03009BB2FB625EE088
:10219000FFF780FC03005A00FB695B685B08D218FC
:1021A000FB695B6819001000FDF7AEFF03009BB2EE
:1021B000FB624CE08D4B1B68102213400ED0FB6974
:1021C0005B685B088A4A9A18FB695B681900100013
:1021D000FDF79AFF03009BB2FB6238E0FB695B6886
:1021E0005B08844A9A18FB695B6819001000FDF7C8
:1021F0008BFF03009BB2FB6229E0FFF7A5FB030006
:102200005A00FB695B685B08D218FB695B681900C0
:102210001000FDF779FF03009BB2FB6217E0FB693A
:102220005B685B08802252029A18FB695B681900A0
:102230001000FDF769FF03009BB2FB6207E0132368
:1022400018229446BC44634401221A70C046FB6ABB
:102250000F2B21D9FA6A80235B029A421CD2FB6AB7
:102260009AB20A2018243B191B180F218A431A809E
:10227000FB6A5B089BB20722134099B23B191B18FB
:102280003A19121812880A431A80FB691B683A1916
:1022900012181288DA6096E0132318229446BC4480
:1022A000634401221A708EE01B2318229446BC441A
:1022B00063441B78082B6AD89A004F4BD3181B68CD
:1022C0009F46FFF7D1FB0200FB695B685B08D218F1
:1022D000FB695B6819001000FDF716FF03009BB255
:1022E000FB625CE0FFF7D6FB0200FB695B685B0802
:1022F000D218FB695B6819001000FDF705FF0300A9
:102300009BB2FB624BE0394B1B68102213400ED08E
:10231000FB695B685B08394A9A18FB695B681900BE
:102320001000FDF7F1FE03009BB2FB6237E0FB6992
:102330005B685B08324A9A18FB695B6819001000F9
:10234000FDF7E2FE03009BB2FB6228E0FFF7FCFA18
:102350000200FB695B685B08D218FB695B681900C7
:102360001000FDF7D1FE03009BB2FB6217E0FB6992
:102370005B685B08802212029A18FB695B6819008F
:102380001000FDF7C1FE03009BB2FB6207E01323C0
:1023900018229446BC44634401221A70C046FB6A6A
:1023A0000F2B09D9FA6A80235B029A4204D2FB6997
:1023B0001B68FA6ADA6006E0132318229446BC44CC
:1023C000634401221A70FB6900221A66FB6900222D
:1023D0005A66132318229446BC4463441B781800A1
:1023E000BD460EB0B0BDC046C43700080010024064
:1023F00000127A000048E801E837000800093D00B3
:102400000024F40080B582B000AF78607B685B6A1E
:10241000012213400BD07B681B685B684A4A13405B
:1024200019007B689A6A7B681B680A435A607B685C
:102430005B6A022213400BD07B681B685B68434ACF
:10244000134019007B68DA6A7B681B680A435A608C
:102450007B685B6A042213400BD07B681B685B6857
:102460003B4A134019007B681A6B7B681B680A4360
:102470005A607B685B6A082213400BD07B681B683C
:102480005B68344A134019007B685A6B7B681B6891
:102490000A435A607B685B6A102213400BD07B684A
:1024A0001B689B682C4A134019007B689A6B7B68F9
:1024B0001B680A439A607B685B6A202213400BD03A
:1024C0007B681B689B68254A134019007B68DA6BA0
:1024D0007B681B680A439A607B685B6A40221340F2
:1024E0001DD07B681B685B681D4A134019007B6820
:1024F0001A6C7B681B680A435A607B681A6C8023DD
:102500005B039A420BD17B681B685B68154A1340DA
:1025100019007B685A6C7B681B680A435A607B68A9
:102520005B6A802213400BD07B681B685B680E4A95
:10253000134019007B689A6C7B681B680A435A60D9
:10254000C046BD4602B080BDFFFFFDFFFFFFFEFF9E
:10255000FFFFFBFFFF7FFFFFFFEFFFFFFFDFFFFF3F
:10256000FFFFEFFFFFFF9FFFFFFFF7FF80B586B084
:1025700002AF78607B680022DA67FEF7A3FA0300F7
:10258000FB607B681B681B6808221340082B0CD17A
:10259000FB68802291037868154A0092002200F0BF
:1025A00029F8031E01D003231EE07B681B681B680B
:1025B00004221340042B0CD1FB688022D1037868DD
:1025C0000B4A0092002200F015F8031E01D00323ED
:1025D0000AE07B6820225A677B6820229A677B6822
:1025E00070220021995400231800BD4604B080BD1C
:1025F000FFFFFF0180B584B000AFF860B9603B60B9
:10260000FB1D1A7029E0BB69013326D0FEF75AFA88
:1026100002003B68D31ABA699A4202D3BB69002B05
:102620001BD1FB681B681A68FB681B6815490A40C8
:102630001A60FB681B689A68FB681B6801218A4363
:102640009A60FB6820225A67FB6820229A67FB6821
:1026500070220021995403230FE0FB681B68DB699B
:10266000BA681340BA68D31A5A425341DBB21A000F
:10267000FB1D1B789A42C6D000231800BD4604B04B
:1026800080BDC0465FFEFFFF90B589B000AF0C244F
:102690003B19180014231A00002100F053FB594B7A
:1026A000DA6A584B04210A43DA62564BDB6A042289
:1026B0001340BB60BB68534BDA6A524B01210A439B
:1026C000DA62504BDB6A012213407B607B684D4B22
:1026D000DA6A4C4B02210A43DA624A4BDB6A022275
:1026E00013403B603B68A023DB050022F421180067
:1026F000FEF77DFC444B002203211800FEF777FC17
:102700003B19C02212021A603B1903225A603B197E
:1027100000229A603B193D4A19001000FEF7D4FAD6
:102720003B193B4A1A603B1903225A603B190022AD
:102730009A603A19A023DB0511001800FEF7C4FACD
:102740003B19F4221A603B1901225A603B190022FE
:102750009A603B190022DA603A19A023DB051100C8
:102760001800FEF7B1FA3B1908221A603B19294AF2
:102770005A603B1900229A603A19A023DB05110028
:102780001800FEF7A1FA3B1903221A603B19012237
:102790005A603B1900229A603B190022DA603B190B
:1027A000194A19001000FEF78FFA3B1980225200D7
:1027B0001A603B1900225A603B1900229A603A19AC
:1027C000A023DB0511001800FEF77EFA3B19382222
:1027D0001A603B1903225A603B1900229A603B1988
:1027E000094A19001000FEF76FFA002200210620A6
:1027F000FEF738FA0620FEF74AFAC046BD4609B091
:1028000090BDC04600100240000400500008005077
:10281000039800000000111080B500AFFEF7FCF82F
:1028200000F02AF8FFF730FF00F0C4F9FEF700F8D7
:10283000FEF718F8FEF720F80E4B1800FEF78EF89A
:10284000A023DB05002204211800FEF7D0FBFA23A9
:102850005B001800FEF740F9A023DB0501220421EC
:102860001800FEF7C4FBFA235B001800FEF734F9EA
:10287000E6E7C046E800002090B59BB000AF3424E6
:102880003B19180034231A00002100F05BFA2023C2
:10289000FB18180014231A00002100F053FA3B1D06
:1028A00018001C231A00002100F04CFA254B1B686D
:1028B000254A1A40234B802109010A431A6021004E
:1028C0007B1802221A607B180122DA607B18102222
:1028D0001A617B1800225A627B181800FEF7A4FBCD
:1028E000031E01D000F032F820217B180F221A605D
:1028F0007B1801225A607B1800229A607B18002204
:10290000DA607B1800221A617B1800211800FEF79C
:10291000F1FE031E01D000F019F83B1D09221A60D8
:102920003B1D00229A603B1D00225A613B1D18008E
:10293000FFF7C6F8031E01D000F008F8C046BD46F8
:102940001BB090BD00700040FFE7FFFF80B500AFF7
:10295000C046BD4680BD000080B584B000AF786041
:102960007B681B681F221340FB600122FB689A40B2
:102970001300BB60094B5B69BA68134009D0074B71
:10298000BA685A617B685B68002B02D07B685B6821
:102990009847C046BD4604B080BDC0460004014013
:1029A00080B500AF074B5A6B064B01210A435A63AF
:1029B000044B9A6B034B802149050A439A63C04636
:1029C000BD4680BD0010024080B500AFC046BD4688
:1029D00080BD80B500AFFEE780B500AFC046BD4604
:1029E00080BD80B500AFC046BD4680BD80B500AF9C
:1029F000FEF75CF8C046BD4680BD000080B500AF64
:102A0000034B1800FFF7A8FFC046BD4680BDC04677
:102A1000E000002080B586B000AFF860B9607A6051
:102A200000237B610AE000E000BF0100BB685A1C84
:102A3000BA60CAB21A707B6901337B617A697B68BC
:102A40009A42F0DB7B681800BD4606B080BD80B5B9
:102A500086B000AFF860B9607A6000237B6109E05E
:102A6000BB685A1CBA601B78180000E000BF7B6985
:102A700001337B617A697B689A42F1DB7B681800DD
:102A8000BD4606B080BD000080B584B000AF786060
:102A9000114B1B68002B02D10F4B104A1A600E4BD2
:102AA0001B68FB600C4B1A687B68D2186B469A4215
:102AB00007D900F01DF903000C221A6001235B42C4
:102AC00006E0054B1A687B68D218034B1A60FB6856
:102AD0001800BD4604B080BDF814002098150020F1
:102AE00080B582B000AF786001235B421800BD461C
:102AF00002B080BD80B582B000AF786039603B68BD
:102B0000802292015A6000231800BD4602B080BDA9
:102B100080B582B000AF786001231800BD4602B0D6
:102B200080BD80B584B000AFF860B9607A600023E2
:102B30001800BD4604B080BD80B500AF174B1A68C1
:102B4000164B802149000A431A60144BDA68134B74
:102B500013490A40DA60114B1A68104B11490A40B8
:102B60001A600E4B9A680D4B01218A439A600B4BF9
:102B70001A680A4B0C490A401A60084BDA68074B7E
:102B80000A490A40DA60054B00221A61084B80228C
:102B900012059A60C046BD4680BDC0460010024086
:102BA0000C40FF88F6FFF6FEFFFFFBFFFFFF02FF72
:102BB00000ED00E080B500AF144B154A1A60134BCE
:102BC000E12252025A60114B00229A600F4B002200
:102BD000DA600E4B00221A610C4B0C225A610B4B2F
:102BE00000229A61094B0022DA61084B00221A6226
:102BF000064B00225A62054B1800FFF797F8031E98
:102C000001D0FFF7A3FEC046BD4680BDFC140020E6
:102C10000038014090B589B000AF78600C243B19B2
:102C2000180014231A00002100F08CF87B681B6840
:102C3000184A93422AD1184B5A6B174B8021C9016D
:102C40000A435A63144BDA6A134B01210A43DA62CE
:102C5000114BDB6A01221340BB60BB683B19C022E9
:102C6000D2001A6021007B1802225A607B180022D1
:102C70009A607B180322DA607B1804221A617A18A2
:102C8000A023DB0511001800FEF71EF8C046BD4664
:102C900009B090BD00380140001002400D48854643
:102CA000002103E00C4B5B58435004310B480C4BA4
:102CB00042189A42F6D30B4A02E000231360043212
:102CC000094B9A42F9D3FFF737FF00F017F8FFF7E7
:102CD000A3FDFEE700200020A4380008000000202B
:102CE000D8140020D814002094150020FEE700001E
:102CF000014B18687047C0467414002070B5002658
:102D00000C4D0D4C641BA410A64209D1002600F006
:102D100031FD0A4D0A4C641BA410A64205D170BDBA
:102D2000B300EB5898470136EEE7B300EB589847ED
:102D30000136F2E79C3800089C3800089C380008EF
:102D4000A038000803008218934200D17047197020
:102D50000133F9E770B505000E00002804D083693F
:102D6000002B01D100F06EFAAB69AC68002B02D1E8
:102D7000280000F067FA2D4B9C4222D16C68636EEC
:102D8000DB0705D4A3899B0502D4A06D00F0FBFAF4
:102D9000A3891B0702D52369002B29D12100280014
:102DA00000F0AAF8002823D001256D42636EDB07EE
:102DB00005D4A3899B0502D4A06D00F0E5FA280094
:102DC00070BD1B4B9C4201D1AC68D8E7194B9C42AB
:102DD000D5D1EC68D3E70136A360002B04DAA269F1
:102DE0009A4216DC0A2914D023685A1C22601970F2
:102DF000A3683178013B0029EDD1A360002B0FDAE5
:102E0000280022000A3100F021F80A25431CCDD108
:102E1000CAE72200280000F019F8431CE8D1C3E7F4
:102E20000A2523685A1C22601D70BFE75438000829
:102E3000743800083438000810B5034B01001868D6
:102E4000FFF788FF10BDC04674140020F8B50500D8
:102E50000E001400002804D08369002B01D100F07B
:102E6000F1F9224B9C422ED16C68A369A360A3891F
:102E70001B0732D52369002B2FD023682269F7B2B4
:102E8000981A6369F6B2834205DC2100280000F03D
:102E900037F9002827D1A3680130013BA3602368DC
:102EA0005A1C22601F706369834204D0A389DB0728
:102EB00007D50A2E05D12100280000F021F90028AD
:102EC00011D13000F8BD0A4B9C4201D1AC68CCE76F
:102ED000084B9C42C9D1EC68C7E72100280000F0EC
:102EE0000BF80028C9D001267642EAE754380008DA
:102EF0007438000834380008374B70B51D68060078
:102F00000C00002D05D0AB69002B02D1280000F089
:102F100099F9324B9C420FD16C680C23E25E93B25C
:102F200011072DD4D90611D409230120336037337A
:102F30001343A381404270BD294B9C4201D1AC6830
:102F4000EBE7284B9C42E8D1EC68E6E75B0713D53A
:102F5000616B002908D023004433994202D030002D
:102F600000F080FA002363632422A3899343A381A2
:102F700000236360236923600823A2891343A3818C
:102F80002369002B0BD1A0218022A3898900920004
:102F90000B40934203D02100300000F01FFA0C22B6
:102FA000A35E01201A0099B2024003420FD0002212
:102FB000A26062695242A261002022698242BAD1B3
:102FC0000A06B8D540221343A3810138B3E7880726
:102FD00000D46269A260EFE774140020543800083E
:102FE0007438000834380008F7B58B8905000C00E8
:102FF0001A075FD44A68002A04DC0A6C002A01DC44
:103000000020FEBDE76A002FFAD0002280212E6842
:103010002A601A0049010A400B4234D0606DA3892E
:103020005B0706D56368C01A636B002B01D0236C65
:10303000C01A0200216A00232800E76AB847A18964
:10304000431C06D12B681D2B31D82C4ADA40D307FC
:103050002DD50023636023692360CB0405D5431C71
:1030600002D12B68002B00D16065616B2E600029B6
:10307000C6D023004433994202D0280000F0F2F970
:1030800000206063BDE701232800216AB847431C84
:10309000C5D12B68002BC2D01D2B01D0162B01D11E
:1030A0002E60ADE74023A2891343A381A9E7402303
:1030B0000B43FAE70F69002FA2D00A680F60D21BFA
:1030C000019200229B0700D14A69A260019B002B5C
:1030D00000DC95E73A002800019B216AA66AB04708
:1030E000002806DC40230120A28940421343A3812B
:1030F00087E7019B3F181B1A0193E7E70100402077
:103100000B6970B505000C00002B02D100252800CA
:1031100070BD002804D08369002B01D100F092F823
:10312000144B9C421BD16C680C22A35E002BEDD08B
:10313000626ED20704D49B0502D4A06D00F023F97F
:1031400028002100FFF750FF636E0500DB07DED487
:10315000A3899B05DBD4A06D00F016F9D7E7064BD9
:103160009C4201D1AC68DFE7044B9C42DCD1EC68A7
:10317000DAE7C046543800087438000834380008CC
:10318000002310B5040003604360836081814366BF
:103190001900C28103614361836108225C30FFF73B
:1031A000D1FD054B6362054B2462A362044BE362CD
:1031B000044B236310BDC046D93500080136000812
:1031C000393600086536000810B5024900F0BAF833
:1031D00010BDC0460131000870B568254A1E554330
:1031E0000E002900743100F087F9041E08D0002178
:1031F0002A00016046600C30A0606832FFF7A2FD33
:10320000200070BD10B5024800F0BDF810BDC046EA
:103210008C15002010B5024800F0B6F810BDC0466D
:103220008C15002010B5024800F0ADF810BDC04666
:103230008715002010B5024800F0A6F810BDC04662
:103240008715002013B50400FFF7ECFFA369002BDE
:1032500002D0FFF7EFFF13BDA364E3642365134BB4
:10326000134A1B68A2620193A34201D10123A36107
:10327000200000F01FF86060200000F01BF8A06044
:10328000200000F017F800220421E0606068FFF7DA
:1032900077FF01220921A068FFF772FF02221221A5
:1032A000E068FFF76DFF0123A361D2E73038000823
:1032B000C9310008F8B50700FFF7A4FF1F4B1E68CF
:1032C000B369002B02D13000FFF7BCFF4836B46869
:1032D0007368013B04D53368002B22D03668F6E7CB
:1032E0000C22A55E002D1AD12000154B5830E3604A
:1032F000656600F047F8FFF78DFF200008222900DF
:103300002560A560656025616561A5615C30FFF79A
:1033100019FD6563A563A564E5642000F8BD683404
:10332000D7E704213800FFF757FF041E3060D5D1DE
:10333000FFF770FF0C233B60EFE7C0463038000812
:103340000100FFFFF7B50400060000270191483493
:103350006368A5680093009B013B009304D5246833
:10336000002CF5D13800FEBDAB89012B08D90E2207
:10337000AB5E013304D029003000019B984707431E
:103380006835E8E7704770477047000070B50E0079
:103390001D000E23C95E140096B0002907DA002331
:1033A0002B60B3891B0611D48023DB000FE06A4633
:1033B00000F084F90028F2DBF02301991B02194088
:1033C000054BC9184B4259412960EDE740230020C5
:1033D000236016B070BDC04600E0FFFFF7B50226BF
:1033E0008B8905000C00334206D02300473323604D
:1033F000236101236361F7BD6A4601ABFFF7C6FF96
:1034000000990700280000F077F8002808D10C2266
:10341000A35E9A05EFD4032293431E43A681E4E7FB
:103420000F4BAB628023A28920601343A381009BD2
:1034300020616361019B002B0DD028000E23E15E0B
:1034400000F04EF9002806D00322A38993431A0006
:1034500001231343A381A0890743A781CBE7C0467B
:10346000C931000870B50500002910D00C1F236871
:10347000002B00DAE418280000F058F91D4A136800
:10348000002B05D163601460280000F057F970BD6F
:10349000A34208D9216860188342F3D118685B6899
:1034A00041182160EEE71A005B68002B01D0A342AF
:1034B000F9D911685018A0420BD12068091850188A
:1034C00011608342E0D118685B6841181160536055
:1034D000DAE7A04202D90C232B60D5E721686018F7
:1034E000834203D118685B684118216063605460AF
:1034F000CAE7C0467C150020F8B50323CD1C9D43C8
:10350000083506000C2D1FD20C25A9421ED830000C
:1035100000F00CF925490A681400002C1AD1244F38
:103520003B68002B04D12100300000F043F83860E4
:103530002900300000F03EF8431C2BD10C23300052
:10354000336000F0FBF803E0002DDEDA0C2333607B
:103550000020F8BD23685B1B19D40B2B03D9236013
:10356000E418256003E06368A2420ED10B603000CE
:1035700000F0E4F8200007220B30231D9043C21A0C
:103580009842E6D01B1AA350E3E75360EFE722000E
:103590006468C2E70323C41C9C43A042E1D0211A03
:1035A000300000F007F8431CDBD1C7E77C15002092
:1035B00080150020002370B5064D040008002B6024
:1035C000FFF762FA431C03D12B68002B00D0236065
:1035D00070BDC0469015002070B50C000E25495FE7
:1035E00000F0B4F8002803DB636D1B18636570BD41
:1035F000A389024A1340A381F9E7C046FFEFFFFF0A
:10360000F8B51F008B8905000C001600DB0505D5F9
:103610000E23C95E0022022300F074F8A389054A34
:1036200028001340A38132000E23E15E3B0000F02E
:103630001FF8F8BDFFEFFFFF70B50C000E25495FC6
:1036400000F060F8A389421C03D1054A1340A3810E
:1036500070BD802252011343A3816065F8E7C04624
:10366000FFEFFFFF10B50E23C95E00F015F810BD87
:1036700070B50400080011001A000023054D2B60EE
:10368000FFF7E5F9431C03D12B68002B00D0236022
:1036900070BDC04690150020002370B5064D040093
:1036A00008002B60FFF71CFA431C03D12B68002B8A
:1036B00000D0236070BDC04690150020002370B577
:1036C000064D0400080011002B60FFF713FA431C9D
:1036D00003D12B68002B00D0236070BD9015002013
:1036E000002370B5064D040008002B60FFF710FAA8
:1036F000431C03D12B68002B00D0236070BDC04653
:103700009015002070B50400080011001A00002375
:10371000054D2B60FFF705FA431C03D12B68002BE6
:1037200000D0236070BDC0469015002010B502483F
:10373000FFF729FE10BDC0468815002010B50248CD
:10374000FFF722FE10BDC0468815002070B50400AA
:10375000080011001A000023054D2B60FFF75AF9ED
:10376000431C03D12B68002B00D0236070BDC046E2
:1037700090150020F8B5C046F8BC08BC9E467047BE
:0C378000F8B5C046F8BC08BC9E46704777
:10378C0044656275673A20652D50617065722062E0
:10379C007573790D0000000044656275673A206509
:1037AC002D506170657220627573792072656C653D
:1037BC006173650D000000006C2100089021000869
:1037CC00B42100083E220008FA2100083E2200081D
:1037DC003E2200083E2200081E220008C2220008D9
:1037EC00E4220008062300088E2300084C2300085E
:1037FC008E2300088E2300088E2300086E230008F9
:10380C000000000000000000010203040607080984
:10381C000000000001020304030406080C10182029
:10382C0030000000781400200000000000000000B0
:10383C00000000000000000000000000000000007C
:10384C00000000000000000000000000000000006C
:10385C00000000000000000000000000000000005C
:10386C00000000000000000000000000000000004C
:10387C00000000000000000000000000000000003C
:08388C00000000000000000034
:08389400CCC9FF7F0100000018
:04389C00E900000837
:0438A000C10000085B
:1038A4001200000001C700011101000044001800CB
:1038B40045C70000000000003C0100001880000023
:1038C40022B1000022C70000200000004E000000CA
:1038D4004FC7000032804840000000000000000094
:1038E40000404880000000000000000000804840C4
:1038F40000000000000000000040488000000000BC
:1039040000000000000000000000000000000000B3
:10391400000A000000000000080100080100020A7B
:103924000000000000000000000000000000000093
:103934000000000000000000000000000000000083
:103944000000000000000000000000000000000073
:103954000000000000000000000000000000000063
:103964000000000000222222222222000000000087
:103974003F22000003170000044100322C20000005
:103984000300000600000000FFFFFFFFFFFFFFFF32
:103994008FFFFFFFFFFFFFFFF1FFFFFFFFFFFFFFB1
:1039A400FFFFFFFFFFFFFFFFFF8FFFFFFFFFFFFF93
:1039B400FFF1FFFFFFFFFFFFFFFFFFFFFFFFFFFF21
:1039C400FFFF8FFFFFFFFFFFFFFFF1FFFFFFFFFF81
:1039D400FFFFFFFFFFFFFFFFFFFFFF8FFFFFFFFF63
:1039E400FFFFFFF1FE01FFFFFFFFFFFFFFFFFFFFF0
:1039F400FFFFFFFF8FFFFFFFFFFFFFFFF1F8007FD7
:103A0400FFFFFFFFFFFFF7FF3FFFFFFFFF8FFFFFFA
:103A1400FFFFFFFFFFF1F0003FFFFFFFFFFFFFE1AC
:103A2400FE1FFFFFFFFF8FFFFFFFFFFFFFFFF1F010
:103A3400001FFFFFFFFFFFFFE3FF1FFFFFFFFF8FDD
:103A4400FFFFFFFFFFFFFFF1E0001FFFFFFFFFFF8E
:103A5400FFE3FF9FFFFFFFFF8FFFFFFFFFFFFFFF5E
:103A6400F1E1E30000000001FFFFE7FF8FFFFFFF2C
:103A7400FF8FFFFFFFFFFFFFFFF1C3F30FFFFFFF08
:103A8400FCFFFFE3FF8FFFFFFFFF8FFFFFFFFFFF41
:103A9400FFFFF1C33B0FFFFFFFFEFFFFE3FF1FFF2D
:103AA400FFFFFF8FFFFFFFFFFFFFFFF1C30F0FFFBC
:103AB400FFFFFEFFFFE1FE1FFFFFFFFF8FFFFFFF82
:103AC400FFFFFFFFF1C30F0FFFFFFFFEFFFFF0FC3F
:103AD4001FFFFFFFFF8FFFE3FFFFFFFFFFF1C38720
:103AE4000FFFFFFFFEFFFFF0003FFFFFFFFF8FFF11
:103AF400E07FFFFFFFFFF1C1030FFFFFFFFEFFFFAA
:103B0400F8007FFFFFFFFF8FFFE00FFFFFFFFFF1D4
:103B1400E0001FFFFFFFFEFFFFFE01FFFFFFFFFFAF
:103B24008FFFFC03FFFFFFFFF1E0001FFFFFFFFE1D
:103B3400FFFFFFFFFFFFFFFFFF8FFFFF807FFFFF00
:103B4400FFF1F0003FFFFFFF7EFFFFFBFFFFFFFFE2
:103B5400FFFF8FFFFFF01FFFFFFFF1F8007FFFFF64
:103B6400FC3EFFFFE0FFFFFFFFFFFF8FFFFF001F93
:103B7400FFFFFFF1FE00FFFFFFF03EFFFFC67FFFE8
:103B8400FFFFFFFF8FFFF8078FFFFFFFF1FE87FFA7
:103B9400FFFFE0CEFFFFCE7FFFFFFFFFFF8FFFE0C1
:103BA4001F8FC007FFF1FEFFFFFFFF8186FFFFCEDF
:103BB4007FFFFFFFFFFF8FFFE0FFCF8007FFF1FED6
:103BC400FFFFFFFF0206FFFFC67FFFFFFFFFFF8F20
:103BD400FFE3FFEF0007FFF1FEFFFFFFFE0C02FF14
:103BE400FFE0FFFFFFFFFFFF8FFFFFFFFF1FFFFF50
:103BF400F1FEFFFFFFFE1802FFFFFBFFFFFFFFFFC9
:103C0400FF8FFFFFFFFF1FFFFFF1FEFFFFFFFE20FF
:103C140000FFFFFFFFFFFFFFFFFF8FFFFE01FF1FFE
:103C2400FFFFF1FEFFFFFFFEC002FFFFFF03FFFFE8
:103C3400FFFFFF8FFFF001FF9FFFFFF1FEFFFFFF7C
:103C4400FF0002FFFFF8007FFFFFFFFF8FFFE0018F
:103C5400E0800FFFF1FEFFFFFFFF0002FFFFF00017
:103C64003FFFE7FFFF8FFFE003E00007FFF1FEFFE8
:103C7400FFFFFF8006FFFFE0CC1FFFE0FFFF8FFF89
:103C8400E271E00007FFF1FEFFFFFFFFC00EFFFF40
:103C9400E3C71FFFE03FFF8FFFE739E0000FFFF1AD
:103CA400FEFFFFFFFFC00EFFFFE7E78FFFF007FFF8
:103CB4008FFFE738FFFFFFFFF1FEFFFFFFFF001E4E
:103CC400FFFFE7E78FFFFE01FF8FFFE310FFFFFF1A
:103CD400FFF1FEFFFFFFFC003EFFFFE3C78FFFFF86
:103CE400C07F8FFFE301FF1FC7FFF1FEFF83FFF0DB
:103CF400007EFFFFE0071FFFFFF83F8FFFF381FF08
:103D04001FC7FFF1FEFC01FFE000FEFFFFF00F1FE5
:103D1400FFFFC01F8FFFFFC7FF1FC7FFF1FEF007A4
:103D2400FF8001FEFFFFF81FBFFFFE000F8FFFFFA4
:103D3400FFF80007FFF1FEC018FE0003FEFFFFFFBF
:103D4400FFFFFFF007878FFFFFFFF8000FFFF1FE73
:103D5400C0E0F8000FFEFFFFFFFFFFFFE01FC78F6B
:103D6400FFFFFFF8000FFFF1FEC700E0001FFEFF9A
:103D7400FFFFFF9FFFE0FFC78FFE0001FF1EFFFF55
:103D8400F1FEDC00C0003FFEFFFFF83F1FFFE3FF32
:103D9400C78FFE0001FF1FFFFFF1FEE0000000FFE0
:103DA400FEFFFFF00F1FFFFFFFC78FFE0001FFFFA5
:103DB400FFFFF1FEC0000003FFFEFFFFE0031FFF53
:103DC400FFFFFF8FFE03FFF87FFFFFF1FEE000001F
:103DD40007FFFEFFFFE3C19FFFFFFFFF8FFFC07FD1
:103DE400F81FFFFFF1FEE000001FFFFEFFFFE7E00A
:103DF4009FFFF800FF8FFFF81FF807FFFFF1FEF0A9
:103E04000000FFFFFEFFFFE7F81FFFF000FF8FFF3A
:103E1400FE03F801FFFFF1FEF80003FFFFFEFFFFC2
:103E2400E7FC1FFFE000FF8FFFFF83F8C07FFFF177
:103E3400FEFC003FFFFFFEFFFFE3FE1FFFE000FF6D
:103E44008FFFFC07F8F01FFFF1FEFFB7FFFFFFFE37
:103E5400FFFFF1FF1FFFE331FF8FFFE03FF8FC0797
:103E6400FFF1FEFFFFFFFFFFFEFFFFF3FF9FFFE3F6
:103E740038FF8FFF00FFF8FF03FFF1FEFFFFFFFF96
:103E8400FFFEFFFFFFFFFFFFE338FF8FFE07FFF892
:103E9400FFC3FFF1FEFFFFFFFFFFFEFFFFFFFFFF7A
:103EA400FFE318FF8FFE0001F8FFF3FFF1FEFFFFB1
:103EB400FFFFFFFEFFFFFFDFFFFFE300FF8FFE00BA
:103EC40001F8FFFFFFF1FEFFFFFFFFFFFEFFFFFF13
:103ED4008FFFFFE380FF8FFE0001F8FFFFFFF1FE7D
:103EE400FFFFFFFFFFFEFFFFFF87FFFFF181FF8F53
:103EF400FFFFFFFFFFFFFFF1FEFFFFFFFFFFFEFFDE
:103F0400FFFFC3FFFFFFC3FF8FFFFFFFFFFFFFFFA5
:103F1400F1FEFFFFFFFFFFFEFFFFFFE3FFFFFFFFD9
:103F2400FF8FFFFFFFFFFFFFFFF1FE7FFFFFFFFF9C
:103F3400FCFFFFFFF3FFFFFFFFFF8FFFFFFFFFFF0C
:103F4400FFFFF1FF000000000001FFFFFFE3FFFCA3
:103F54000000FF8FFFFFFFFFFFFFFFF1FFFFFFFFE9
:103F6400FFFFFFFFFFFFE3FFFC0000FF8FFFFFFFEA
:103F7400FFFFFFFFF1FFFFFFFFFFFFFFFFFFFFC397
:103F8400FFFC0000FF8FFFFFFFFFFFFFFFF1FFFFBC
:103F9400FFFFFFFFFFFFFFFF87FFFC0000FF8FFF16
:103FA400FFFFFFFFFFFFF1FFFFFFFFFFFFFFFFFF2B
:103FB400FF8FFFFFE3F1FF8FFFFFFFFFFFFFFFF125
:103FC400FFFFFFFFFFFFFFFFFFFF1FFFFFE3F9FFFF
:103FD4008FFFFFFFFFFFFFFFF1FFFFFFFFFFFFFF6B
:103FE400FFFFFF1FFFFFE3F8FF8FFFFFFFFFFFFF50
:103FF400FFF1FFFFFFFFFFFFFFFFFFFF3FFFFFE3B7
:10400400F8FF800000000000000001FFFFFFFFFF39
:10401400FFFFFFFFFE3FFFFFE1F0FF800000000015
:1040240000000001FFFFFFFFFFFFFFFFFFFF1FFF77
:10403400FFF000FF8FFFFFFFFFFFFFFFF1FFFFFF18
:10404400FFFFFFFFFFFFFF1FFFFFF001FF8FFFFFD9
:10405400FFFFFFFFFFF1FFFFFFFFFFFFFFFFFFFF7A
:104064000FFFFFF801FF8FFFFFFFFFFFFFFFF1FFCF
:10407400FFFFFFFFFFFFFFFFFF87FFFFFE07FF8F2D
:10408400FFFFFFFFFFFFFFF1FFFFFFFFFFFFFFFF4A
:10409400FFFFCFFFFFFFFFFF8FFFFFFFFFFFFFFFCC
:1040A400F1FFFFFFFFFFFFFFFFFFFFFFFFFFFFFF2A
:1040B400FF8FFFFFFFFFFFFFFFF1FFFFFFFFFFFF8A
:1040C400FFFFFFFFFFFFFFF800FF8FFFFFFFFFFF72
:1040D400FFFFF1FFFFFFFFFFFFFFFFFFFFF8FFFF01
:1040E400F000FF8FFFFFFFFFFFFFFFF1FFFFFFFF68
:1040F400FFFFFFFFFFF8703FFFE000FF8FFFFFFFB0
:10410400FFFFFFFFF1FFFFFFFFFAFFFFFFFFF020BC
:104114001FFFE000FF8FFFFFFFFFFFFFFFF1FFFF27
:10412400FFFFC01FFFFFFFE0021FFFE3FFFF8FFF42
:10413400FFFFFF0FFFFFF1FFFFFFFF000FFFFFFF78
:10414400E3871FFFE3FFFF8FFFFFFFFF0FFFFFF179
:10415400FFFFFFFE0007FFFFFFE78F8FFFE3FFFF77
:104164008FFFFFFFFF0FFFFFF1FFFFFFFE00027F46
:10417400FFFFE7CF8FFFF0FFFF8FFFFFFFFF0FFF72
:10418400FFF1FFFFFFFC00007FFFFFE7CF9FFFE091
:1041940000FF8FFFFE0000003FFFF1FFFFFFF8006C
:1041A40000FFFFFFE3FF1FFFE000FF8FFFFE0000A3
:1041B400003FFFF1FFFFFFF83000FFFFFFF3FE1F9A
:1041C400FFE000FF8FFFFE0000003FFFF1FFFFFF55
:1041D400F83000FFFFFFF7FF3FFFE000FF8FFFFE17
:1041E4000000003FFFF1FFFFFFF00000FFFFFFFFB3
:1041F400FFFFFFFFFFFF8FFFFE0000003FFFF1FF07
:10420400FFFFF00000FFFFFFFFFFFFFFFFFFFF8F37
:10421400FFFF01FF0FFFFFF1FFFFFF900000FFFF13
:10422400FFFFFF1FFFFFFFFF8FFFFFC07F0FFFFF99
:10423400F1FFFFFF100000FFFFFFF81F1FFFE0006A
:10424400FF8FFFFFE03F0FFFFFF1FFFFFC100000B7
:10425400FFFFFFF00F1FFFE000FF8FFFFFF81F0FAE
:10426400FFFFF1FFFFF8183000FFFFFFE0031FFF1F
:10427400E000FF8FFFFFFC070FFFFFF1FFFFF808CF
:104284003800FFFFFFE3C19FFFE000FF8FFFFFFF48
:10429400030FFFFFF1FFFFF0083001FFFFFFE7F01E
:1042A4009FFFFFE1FF8FFFFFFF810FFFFFF1FFFF84
:1042B400E0080001FFFFFFE7F81FFFFFF9FF8FFF92
:1042C400FFFFE00FFFFFF1FFFFE0E40001FFFFFF4E
:1042D400E7FC1FFFFFF8FF8FFFFFFFF00FFFFFF169
:1042E400FFFFE0E20003FFFFFFE3FE1FFFFFF8FF15
:1042F4008FFFFFFFF80FFFFFF1FFFFC0E20007FF92
:10430400FFFFF1FF1FFFE000FF8FFFFFFFFC0FFF28
:10431400FFF1FFFFC041000FFFFFFFF3FF9FFFE02E
:1043240000FF8FFFFFFFFE0FFFFFF1FFFFC000C084
:104334001FFFFFFFFFFFFFFFE001FF8FFFFFFFFFF6
:10434400FFFFFFF1FFFFC00030FFFFFFFFFFFFFF94
:10435400FFE003FF8FFFFFFFFFFFFFFFF1FFFFC041
:1043640000077FFFFFFFFFFFFFFFFFFFFF8FFFFF40
:10437400FFFFFFFFFFF1FFFFC000003FFFFFFFFF54
:10438400FFFFFFFFFFFF8FFFFFFFFF07FFFFF1FFAF
:10439400FFC000007FFFFFFFFFFFFFFFFFFFFF8F56
:1043A400FFFFE0FC01FFFFF1FFFFC040007FFFFFC4
:1043B400FFFFBFFFFFFFFFFF8FFFFFC07800FFFF7E
:1043C400F1FFFFC0E0007FFFFFFFFF3FFFFFFF871C
:1043D400FF8FFFFF803800FFFFF1FFFFE0E0007F69
:1043E400FFFFFFFF3FFFFF1E03FF8FFFFF001000D3
:1043F4007FFFF1FFFFE0E0007FFFFFFEFFBFCFFE86
:104404003E01FF8FFFFF0010007FFFF1FFFFE00080
:10441400003FFFFFFE3FFF8FFE3C01FF8FFFFE00CA
:1044240000F07FFFF1FFFFF000003FFFFFFF3C0FB4
:104434009FFE3C30FF8FFFFE0F01F83FFFF1FFFFAF
:10444400F800011FFFFFFFF003FFFE3C78FF8FFF22
:10445400FE0F81FC3FFFF1FFFFF80003FFFFFFFFAA
:10446400E000FFFE3878FF8FFFFE1FC3FC3FFFF123
:10447400FFFFFC0007FFFFFFFFC000FFFE1878FFEF
:104484008FFFFE1FC3FC3FFFF1FFFFFF000FFFFF85
:10449400FFFFC0007FFE00F8FF8FFFFE1FC3FC3F3D
:1044A400FFF1FFFFFF803FFFFFFFFF80003FFF00A2
:1044B400F8FF8FFFFE1FC3FC3FFFF1FFFFFFFFFF6D
:1044C400FFFFFFFF80003FFF01F0FF8FFFFE1FC3D0
:1044D400FC3FFFF1FFFFFFFFFFFFFFFFFF80003FF7
:1044E400FFC3F1FF8FFFFF0FC3FC3FFFF1FFFFFF8F
:1044F400FFFFFFFFFFF1000031FFFFFFFF8FFFFF12
:104504000FFFF83FFFF1FFFFFFFFFFFFFFFFF10089
:104514000031FFFFFFFF8FFFFF07FFF87FFFF1FF71
:10452400FFFFFFFFFFFFFFFF80003FFFFFFFFF8F45
:10453400FFFFFFFFF07FFFF1FFFFFFFFFFFFFFFF24
:10454400FF80003FFFFFFFFF8FFFFFFFFFFFFFFF25
:10455400F1FFFFFFFFFFFFFFFFFF80007FFFFFFF73
:10456400FF8FFFFFFFFFFFFFFFF1FFFFFFFFFFFFD5
:10457400FFFFFFC0007FFFFFFFFF8FFFFFFFFFFF75
:10458400FFFFF1FFFFFFFFFFFFFFFFFFE000FFFF63
:10459400FFFFFF8FFFFFFFFFFFFFFFF1FFFFFFFFA5
:1045A400FFFFFFFFFFF001FFFFFFFFFF8FFFFFFF94
:1045B400FFFFFFFFF1FFFFFFFFFFFFFFFFFF780398
:1045C400DFFFFFFFFF8FFFFFFFFFFFFFFFF1FFFF95
:1045D400FFFFFFFFFFFFFE3F1F8FFFFFFFFF8FFF68
:1045E400FFFFFFFFFFFFF1FFFFFFFFFFFFFFFFFEE6
:1045F4007FFFCFFFFFFFFF8FFFFFFFFFFFFFFFF1F5
:10460400FFFFFFFFFFFFFFFFFEFF3FFFFFFFFFFF77
:104614008FFFFFFFFFFFFFFFF1FFFFFFFFFFFFFF24
:10462400FFFFFF3FFFFFFFFFFF8FFFFFFFFFFFFFC6
:10463400FFF1FFFFFFFFFFFFFFFFFFFF3FFFFFFF54
:10464400FFFF8FFFFFFFFFFFFFFFF1FFFFFFFFFFF4
:10465400FFFFFFFFFFFFFFFFFFFFFF8FFFFFFFFFD6
:10466400FFFFFFF1FFFF000000017FFF00000000DB
:10467400000000000FFFFFFFFFFFFFFFF1FFFD80C1
:104684000000031FFF00000000000000000FFFFFF8
:10469400FF0FF87FFFF1FFF8800000020FFFFFFF1C
:1046A400FFFFFFFFFFFF8FFFFFFE07F83FFFF1FF54
:1046B400F0400000040FFFFFFFFFFFFFFFFFFF8F2D
:1046C400FFFFFE07F03FFFF1FFF06000000C07FF63
:1046D400FFFFFFFFFFFFFFFF8FFFFFFE07F03FFF1E
:1046E400F1FFF02000000807FFFFFFFFFFFFFFFFBF
:1046F400FF8FFFFFFE07F03FFFF1FFF030000010D7
:1047040007FFFFFFFFFFFFFFFFFF8FFFFFFF07F81C
:104714007FFFF1FFF01000003007FFFFFFFFFFFFF6
:10472400FFFFFF8FFFFFFF0FF87FFFF1FFF018007F
:10473400002007FFFFFFFFFFFFFFFFFF8FFFFFFFCB
:10474400FFFFFFFFF1FFF00800006007FFFFFFFF1E
:10475400FFFFFFFFFF8FFFFFFFFFFFFFFFF1FFF0F2
:104764000400004007FFFFFFFFFFFFFFFFFF8FFF75
:10477400FFFFFFFFFFFFF1FFF00600008007FFFFD0
:10478400FFFFFFFFFFFFFF8FFFFFFFFFFFFFFFF1B3
:10479400FFF00200018007FFFFFFFFFFFFFFFFFFA5
:1047A4008FFFFFFFFFFFFFFFF1FFF0030001000792
:1047B400FFFFFFFFE0000000FF8FFFFFFFFFFFFF91
:1047C400FFF1FFF00100020007FFFFFFFF00000000
:1047D40000FF8FFFFFFFFFFFFFFFF1FFF0018006E7
:1047E4000007FFFFFFFC00000000FF8FFFFFFFFF3B
:1047F400FFFFFFF1FFF00080040007FFFFFFF00060
:10480400380000FF8FFFFFFFFFFFFFFFF1FFF00005
:1048140040080007FFFFFFE000FE0000FF8FFFFFDE
:10482400FFFFFFFFFFF1FFF00040080007FFFFFF5D
:10483400C003FF8000FF8FFFFFFFFFFFFFFFF1FFBB
:10484400F00020100007FFFFFF800FFFF800FF8F2C
:10485400FFFFFFFFFFFFFFF1FFF00030300007FF15
:10486400FFFF003FFFFC00FF8FFFFFFFFFFFFFFF85
:10487400F1FFF00010200007FFFFFE00FFE7FE003D
:10488400FF8FFFFFFFFFFFFFFFF1FFF00018400065
:1048940007FFFFFC01FF81FF00FF8FFFFFF03FFCDC
:1048A4003FFFF1FFF00008C00007FFFFFC01FF001D
:1048B4007F00FF8FFFFFC00FFC3FFFF1FFF00004FC
:1048C400800007FFFFF801FFC07F80FF8FFFFF809C
:1048D40007FC3FFFF1FFF00005000007FFFFF800B1
:1048E400FFF80000FF8FFFFF0003FC3FFFF1FFF024
:1048F4000003000007FFFFF0001FFE0000FF8FFF12
:10490400FF0001FC3FFFF1FFF00003000007FFFF81
:10491400F00007FF8000FF8FFFFE0000FC3FFFF167
:10492400FFF00001000007FFFFF1FF81FF8000FF9F
:104934008FFFFE0780FC3FFFF1FFF00001800007BE
:10494400FFFFE0FF007F8000FF8FFFFE0FE07C3F52
:10495400FFF1FFF04780800007FFFFE07FC13F8049
:1049640000FF8FFFFE1FF03C3FFFF1FFF04FC04000
:104974000007FFFFE03FF94F0000FF8FFFFE1FF825
:104984001C3FFFF1FFF04C40400007FFFFE01FFE1B
:10499400780000FF8FFFFE1FF80C3FFFF1FFF0646B
:1049A400C0400007FFFFE00FFF800000FF8FFFFE05
:1049B4001FFC043FFFF1FFF07FC0400007FFFFE052
:1049C40005FFF00000FF8FFFFE1FFE003FFFF1FF19
:1049D400F01F00C00007FFFFE0003FFC0000FF8F56
:1049E400FFFF0FFF003FFFF1FFF00000800007FF13
:1049F400FFE0000FFF0000FF8FFFFF0FFF003FFFEE
:104A0400F1FFF00001000007FFFFE00003FF80005A
:104A1400FF8FFFFF07FFC03FFFF1FFF00001000021
:104A240007FFFFE00007FF8001FF8FFFFF87FFE024
:104A34003FFFF1FFF00002000007FFFFE0003FFF2F
:104A44000001FF8FFFFFFFFFF83FFFF1FFF00006BB
:104A5400000007FFFFE000FFFC0001FF8FFFFFFFE6
:104A6400FFFFFFFFF1FFF00005000007FFFFE0017B
:104A7400FFE00001FF8FFFFFFFFFFFFFFFF1FFF0EB
:104A8400000D800007FFFFE001FF000003FF8FFF20
:104A9400FFFFFFFFFFFFF1FFF00008800007FFFFAB
:104AA400E001FF800003FF8FFFFFFFFFFFFFFFF127
:104AB400FFF00010400007FFFFE000FFF00003FFDD
:104AC4008FFFFFFFFFFFFFFFF1FFF0001040000723
:104AD400FFFFE0001FFE0007FF8FFFFFFFFFFFFF48
:104AE400FFF1FFF00020200007FFFFE00003FF803C
:104AF40007FF8FFFFFFFFFFFFFFFF1FFF0006030B4
:104B04000007FFFFE00007FF800FFF8FFFFFFFFF9D
:104B1400FFFFFFF1FFF00040100007FFFFE0003F40
:104B2400FF801FFF8FFFFFFFFFFFFFFFF1FFF0007C
:104B3400C0080007FFFFE001FFFF001FFF8FFFFE1B
:104B44000000003FFFF1FFF000800C0007FFFFE0D2
:104B540001FFF8003FFF8FFFFE0000003FFFF1FF61
:104B6400F00180040007FFFFE001FFE0007FFF8FFA
:104B7400FFFE0000003FFFF1FFF00100020007FF0D
:104B8400FFE001FE0000FFFF8FFFFE0000003FFF7B
:104B9400F1FFF00200030007FFFFE001F00003FF54
:104BA400FF8FFFFE0000003FFFF1FFF00600010051
:104BB40007FFFFE001800007FFFF8FFFFF000000F9
:104BC4003FFFF1FFF00400018007FFFFE000000059
:104BD4001FFFFF8FFFFF83FFFFFFFFF1FFF00C00BC
:104BE400008007FFFFE0000000FFFFFF8FFFFF8151
:104BF400FFFFFFFFF1FFF00800004007FFFFE000A8
:104C0400000FFFFFFF8FFFFFC1FFFFFFFFF1FFF06A
:104C14001800006007FFFFFFFFFFFFFFFFFF8FFF8C
:104C2400FFC1FFFFFFFFF1FFF01000002007FFFFAF
:104C3400FFFFFFFFFFFFFF8FFFFFE0FFFFFFFFF11D
:104C4400FFF02000001007FFFFFFFFFFFFFFFFFF43
:104C54008FFFFFE0FFFFFFFFF1FFF0600000180788
:104C6400FFFFFFFFFFFFFFFFFF8FFFFFFFFFFFFFC0
:104C7400FFF1FFF04000000807FFFFFFFFFFFFFF09
:104C8400FFFF8FFFFFFFFFFFFFFFF1FFF8C00000F2
:104C9400040FFFFFFFFFFFFFFFFFFF8FFFFFFFFF7B
:104CA400FFFFFFF1FFF8800000041FFFFFFFFFFF7D
:104CB400FFFFFFFF8FFFFFFFFFFFFFFFF1FFFF007D
:104CC4000000023FFFFFFFFFFFFFFFFFFF8FFFFF1B
:104CD400FFFFFFFFFFF1FFFFFFFFFFFFFFFFFFFFEE
:104CE400FFFFFFFFFFFF8FFFFFFFFFFFFFFFF1FF4E
:104CF400FFFFFFFFFFFFFFFFFFFFFFFFFFFFFF8F30
:104D0400FFFFFFFFFFFFFFF1FFFFFFFFFFFFFFFFBD
:104D1400000020007814002000000000543800082F
:104D24007438000834380008000000000000000057
:104D3400000000000000000000000000000000006F
:104D4400000000000000000000000000000000005F
:104D5400000000000000000000000000000000004F
:104D6400000000000000000000000000000000003F
:084D7400000000000000000037
:0400000508002C9D26
:00000001FF
